:020000040800F2
:1000000000800120DD370008FD070008FF07000819
:1000100001080008030800080508000800000000A7
:1000200000000000000000000000000007080008B9
:1000300009080008000000000B0800080D0800086F
:100040002D3800082D3800082D3800082D380008FC
:100050002D3800082D3800082D3800082D380008EC
:100060002D3800082D3800082D3800082D380008DC
:100070002D3800082D3800082D3800082D380008CC
:100080002D3800082D3800082D3800082D380008BC
:100090002D3800082D3800082D3800082D380008AC
:1000A0002D3800082D3800082D3800082D3800089C
:1000B0002D3800082D3800082D3800082D3800088C
:1000C0002D3800082D3800082D3800082D3800087C
:1000D0002D3800082D3800082D3800082D3800086C
:1000E0002D3800082D3800082D3800082D3800085C
:1000F0002D3800082D3800082D3800082D3800084C
:100100002D3800082D3800082D3800082D3800083B
:100110002D3800082D3800082D3800082D3800082B
:100120002D3800082D3800082D3800082D3800081B
:100130002D3800082D3800082D3800082D3800080B
:100140002D3800082D3800082D3800082D380008FB
:100150002D3800082D3800082D3800082D380008EB
:100160002D3800082D3800082D3800082D380008DB
:100170002D3800082D3800080000000000000000A5
:080180002D3800082D3800089D
:1001900010B5054C237833B9044B13B10448AFF3C1
:1001A00000800123237010BDC0000020000000006B
:1001B000384C000808B5034B1BB103490348AFF3A3
:1001C000008008BD00000000C4000020384C00087A
:1001D000034613F8012B002AFBD1181A0138704787
:1001E00001F0FF01102A2BDB10F0070F08D010F8E8
:1001F000013B013A8B422DD010F0070F42B3F6D1EC
:10020000F0B441EA012141EA014122F007047FF004
:1002100000070023F0E80256083C85EA010586EA5B
:10022000010685FA47F5A3FA87F586FA47F6A5FA97
:1002300087F68EB9EED1F0BC01F0FF0102F00702A3
:1002400032B110F8013B013A83EA010313B1F8D14E
:100250000020704701387047002D06BF354603382F
:10026000073815F0010F07D1013015F4807F02BF68
:10027000013015F4C03F0130F0BC0138704700BFB9
:1002800053B94AB9002908BF00281CBF4FF0FF31FD
:100290004FF0FF3000F072B9ADF1080C6DE904CEFB
:1002A00000F006F8DDF804E0DDE9022304B0704751
:1002B0002DE9F047089E04468846002B4BD18A4220
:1002C000154667D9B2FA82F24AB1C2F1200701FAA3
:1002D00002F320FA07F7954047EA030894404FEAF3
:1002E000154E230CB8FBFEF71FFA85FC0EFB178892
:1002F00043EA084307FB0CF1994209D9EB1807F1CF
:10030000FF3080F01B81994240F21881023F2B445C
:100310005B1AA4B2B3FBFEF00EFB103344EA0344B5
:1003200000FB0CFCA44509D92C1900F1FF3380F027
:100330000781A44540F2048102382C4440EA07407A
:10034000A4EB0C0400271EB1D4400023C6E90043EF
:100350003946BDE8F0878B4209D9002E00F0EB80CA
:100360000027C6E9000138463946BDE8F087B3FAF0
:1003700083F7002F47D18B4202D3824200F2FA80EA
:10038000841A61EB030301209846002EE0D0C6E9F1
:100390000048DDE702B9FFDEB2FA82F2002A40F03F
:1003A0008F80491B4FEA154E1FFA85F80127B1FBD4
:1003B000FEFC230C0EFB1C1143EA014308FB0CF16D
:1003C000994207D9EB180CF1FF3002D2994200F2A2
:1003D000CD808446591AA3B2B1FBFEF00EFB101477
:1003E00043EA044408FB00F8A04507D92C1900F1A2
:1003F000FF3302D2A04500F2B6801846A4EB0804F1
:1004000040EA0C409FE7C7F1200CBB4022FA0CFEEB
:100410004EEA030E01FA07F420FA0CF521FA0CF368
:100420004FEA1E482543B3FBF8F92C0C08FB19339F
:100430001FFA8EFA44EA034309FB0AF49C4202FACB
:1004400007F200FA07F10BD91EEB030309F1FF30A5
:1004500080F087809C4240F28480A9F102097344B5
:100460001B1BADB2B3FBF8F008FB103345EA0344A5
:1004700000FB0AFAA24508D91EEB040400F1FF3381
:100480006BD2A24569D90238744440EA0940A0FB06
:100490000289A4EB0A044C45C2464B4654D351D0C2
:1004A000002E69D0B1EB0A0564EB030404FA0CFCDE
:1004B000FD40FC404CEA0505C6E90054002747E72B
:1004C000C2F1200320FA03F7954001FA02F021FA65
:1004D00003F34FEA154E3843010CB3FBFEF71FFA46
:1004E00085F80EFB173341EA034107FB08F38B4203
:1004F00004FA02F407D9691807F1FF3C2FD28B42A6
:100500002DD9023F2944CB1A81B2B3FBFEF00EFB7A
:10051000103341EA034100FB08F38B4207D9691805
:1005200000F1FF3C17D28B4215D902382944C91A71
:1005300040EA07473BE73746304609E70746E7E624
:100540001846FBE64145ABD2B8EB020A69EB0E0256
:1005500001381346A4E76046E9E7184695E7674681
:10056000D1E781467CE702382C4447E7ACF1020C26
:100570002B442FE7384608E73746E9E6704700BFC7
:1005800000B597B0102300930123069360220892D0
:100590000022079202220A920B930C9328230D93B8
:1005A000109207230E9304230F93684600F0A0FADD
:1005B00000B1FEE70F23119303231293002313933B
:1005C00014931593042111A800F04CFD00B1FEE72F
:1005D00017B05DF804FB000030B587B00123ADF81B
:1005E000163000F093F9FFF7CBFF002003F076F808
:1005F0006349644B0B604FF4E1334B60002088602B
:10060000C86008610C234B618861C8610862486258
:1006100003F094F85C4803F0B7F95C4803F0B4F9D0
:100620005B4803F0B1F95B4803F0AEF95A4803F0B8
:10063000ABF95A4803F0A8F9594803F0A5F902F0BC
:100640009DFF002871D1574803F09EF9564802F0EB
:10065000CFFF002840D15448017842788378C4788D
:1006600005794079029001950094504803F018F9FB
:1006700003224F494F4802F0A7FF00284CD14E48B3
:1006800003F082F94D4802F0BFFF00283BD14B48F0
:10069000017842788378C0780090494803F000F9E7
:1006A000484C21786278A378E0780090464803F0BF
:1006B000F7F82146454803F007F80A234FF0FF34C6
:1006C0005D1EADB27BB9002D3BD1414803F05CF912
:1006D000002003F027F834E03E4803F055F90020ED
:1006E00003F020F8C4E70020019050230093354B1D
:1006F000394A014602F096FF18B9384803F044F928
:1007000000242B46DCE7364803F03EF9002003F0D6
:1007100009F84FF0FF3414E0324803F035F90020B7
:1007200003F000F84FF0FF340BE02F4803F02CF9F2
:10073000002002F0F7FF4FF0FF3402E02B4803F0F7
:1007400023F9002CFDD1E5B242F2107300930DF1B4
:10075000160341222649284602F08EFF0028EDD0DC
:1007600042F2107300930DF11603642221492846CA
:1007700002F096FF0028E4D11F4803F005F9E0E7F6
:100780003009002000380140504C0008904C00080F
:10079000AC4C0008EC4C0008244D0008644D0008E7
:1007A000784D0008C04D0008F0000020DC4D000826
:1007B000344E0008484E0008544E00085C010020EA
:1007C000704E000800000020A04E0008D84E00081F
:1007D0001C4F0008104E0008E84E0008F44E0008B8
:1007E000404F0008704F0008984F0008E84F00087D
:1007F00004000020F8000020C84F00087047FEE702
:10080000FEE7FEE7FEE770477047704708B500F067
:1008100089F808BD82B00A4B1A6E42F001021A66CE
:100820001A6E02F001020092009A9A6D42F0805214
:100830009A659B6D03F080530193019B02B0704752
:100840000010024000B589B0002303930493059380
:10085000069307930268144B9A4202D009B05DF8E0
:1008600004FB03F5EA339A6D42F400429A659A6DEF
:1008700002F400420192019ADA6C42F00402DA6456
:10088000DB6C03F004030293029B4FF4E0530393E9
:1008900002230493032306930623079303A9034823
:1008A00000F0DCFCDAE700BF003C00400008004834
:1008B00008B50268074B9A4200D008BD064A936DFE
:1008C00023F4004393654FF4E051044800F0B0FD79
:1008D000F3E700BF003C0040001002400008004861
:1008E00010B50446074B1868074BA3FB003080097E
:1008F00000F086FE002221464FF0FF3000F04CFE53
:10090000002010BD48000020D34D621008B5032020
:1009100000F030FE0F20FFF7E3FFFFF77BFF002022
:1009200008BD0000024A136801331360704700BF1E
:1009300060010020014B1868704700BF6001002073
:1009400038B50446FFF7F6FF0546B4F1FF3F00D087
:100950000134FFF7EFFF401BA042FAD338BD00007F
:1009600030B583B00546204B9B6D13F0805F0BD0F4
:1009700000F0F8FDB0F5007F17D0802D1FD82DD0E6
:10098000702D2DD000211BE0174CA36D43F0805338
:10099000A365A36D03F080530193019B00F0E2FD7A
:1009A000A36D23F08053A365E4E7802D03D9A02D28
:1009B00003D9022104E0002102E0012100E003212B
:1009C0000A4A136823F007030B431360136803F00C
:1009D00007038B4206D0012003B030BD0221EFE7B0
:1009E0000121EDE70020F7E700100240002002405F
:1009F0003B4B9B6813F00C0F1AD0394B9B6803F0EC
:100A00000C030C2B0ED0364B9B6803F00C03042B0D
:100A10002FD0334B9B6803F00C03082B2CD0002005
:100A2000014618E02E4BDB6803F00303012BEAD1EB
:100A30002B4B1B6813F0080F14D1294BD3F89430BB
:100A4000C3F30323274A52F82310254B9B6813F066
:100A50000C0F0CD00020224A936803F00C030C2BDF
:100A60000DD070471E4B1B68C3F30313EAE708461B
:100A7000F1E71D480021EEE71C480021EBE7134693
:100A8000D26802F00302DB68C3F302130133022AC7
:100A90000AD0032A1AD0B1FBF3F3114AD068C0F38D
:100AA000062000FB03F008E00F48B0FBF3F30C4A0C
:100AB000D068C0F3062000FB03F0094BDB68C3F3EA
:100AC000416301335B00B0FBF3F0CAE70748B0FBBA
:100AD000F3F3034AD068C0F3062000FB03F0ECE711
:100AE00000100240245000080024F40000127A0094
:100AF00070B582B00446036813F0100F3FD0974BD7
:100B00009B6813F00C0F40F09280944B1B6813F01D
:100B1000020F03D08369002B00F09182206A8F4B73
:100B20001B6813F0080F62D08C4B1B6803F0F003B6
:100B3000984263D9FFF714FF002840F08782874B63
:100B40001A6842F008021A601A6822F0F002216A5C
:100B50000A431A605A6822F47F42E16942EA01229C
:100B60005A60FFF745FF7D4B9B68C3F303137C4A34
:100B7000D35CD8407B4B18600F20FFF7B1FE236891
:100B800013F0010F00F0A180744B9B6803F00C037D
:100B9000082B00F09180714B9B6803F00C030C2B29
:100BA00000F083806368B3F5803F00F0B580B3F553
:100BB000A02F00F0B780694B1A6822F480321A60C7
:100BC0001A6822F480221A606368002B00F0B78054
:100BD000FFF7B0FE0546614B1B6813F4003F74D16C
:100BE000FFF7A8FE401B6428F5D9032035E25B4BD4
:100BF000D3F894301B0903F0F00399E7574B1A68B8
:100C000042F008021A601A6822F0F002216A0A43D0
:100C10001A605A6822F47F42E16942EA01225A606E
:100C2000206AFFF79DFE00289BD0012015E2836912
:100C300033B34A4A136843F001031360FFF77AFEA7
:100C40000546464B1B6813F0020F06D1FFF772FEF4
:100C5000401B0228F5D90320FFE1404B1A6842F0FF
:100C600008021A601A6822F0F002216A0A431A6028
:100C70005A6822F47F42E16942EA01225A607EE723
:100C8000364A136823F001031360FFF753FE05464D
:100C9000324B1B6813F0020F3FF471AFFFF74AFEAF
:100CA000401B0228F4D90320D7E12C4BDB6803F06A
:100CB0000303032B7FF476AF284B1B6813F4003F2C
:100CC00003D06368002B00F0C381236813F0020F88
:100CD00061D0224B9B6803F00C03042B4AD01F4BBE
:100CE0009B6803F00C030C2B3ED0E368002B78D0FC
:100CF0001A4A136843F480731360FFF71BFE05461E
:100D0000164B1B6813F4806F62D1FFF713FE401B74
:100D10000228F5D90320A0E1104A136843F4803378
:100D2000136051E703F18043A3F53C331A6842F4A2
:100D300080221A601A6842F480321A6044E7FFF792
:100D4000F9FD0546054B1B6813F4003FBDD0FFF7C6
:100D5000F1FD401B6428F5D903207EE1001002401C
:100D60000C50000848000020B64BDB6803F003037A
:100D7000022BBAD1B34B1B6813F4806F03D0E36826
:100D8000002B00F06781AF4A536823F0F8532169C4
:100D900043EA01635360236813F0080F4CD0636982
:100DA0009BB3A84AD2F8943043F00103C2F89430C0
:100DB000FFF7C0FD0546A34BD3F8943013F0020FA4
:100DC0003AD1FFF7B7FD401B0228F4D9032044E1D4
:100DD0009C4A536823F0F853216943EA0163536046
:100DE000D9E7984A136823F480731360FFF7A2FDD4
:100DF0000546944B1B6813F4806FCCD0FFF79AFD27
:100E0000401B0228F5D9032027E18E4AD2F89430FE
:100E100023F00103C2F89430FFF78CFD0546894B9F
:100E2000D3F8943013F0020F06D0FFF783FD401B78
:100E30000228F4D9032010E1236813F0040F7BD0BB
:100E4000804B9B6D13F0805F36D17E4B9A6D42F0E4
:100E500080529A659B6D03F080530193019B01259D
:100E6000794B1B6813F4807F28D0A368012B39D0FD
:100E7000052B3FD0734BD3F8902022F00102C3F82A
:100E80009020D3F8902022F00402C3F89020A368A9
:100E9000002B3DD0FFF74EFD06466A4BD3F890304D
:100EA00013F0020F46D1FFF745FD801B41F2883356
:100EB0009842F2D90320D0E00025D1E7624A1368B6
:100EC00043F480731360FFF735FD06465E4B1B68E5
:100ED00013F4807FC9D1FFF72DFD801B0228F5D9BF
:100EE0000320BAE0574AD2F8903043F00103C2F829
:100EF0009030CCE7534BD3F8902042F00402C3F873
:100F00009020D3F8902042F00102C3F89020BEE771
:100F1000FFF710FD06464B4BD3F8903013F0020F4D
:100F200008D0FFF707FD801B41F288339842F2D9C1
:100F3000032092E0002D35D1A36A002B00F08C80B5
:100F4000404A926802F00C020C2A00F08880022BC2
:100F50002ED03C4B1A6822F080721A601B6813F086
:100F6000006F09D1374B1B6813F0005F04D1354A7D
:100F7000D36823F00303D360324AD36823F0887325
:100F800023F48033D360FFF7D5FC04462D4B1B6858
:100F900013F0007F51D0FFF7CDFC001B0228F5D9DC
:100FA00003205AE0274A936D23F080539365C3E7EB
:100FB000244A136823F080731360FFF7BBFC0546D7
:100FC000204B1B6813F0007F06D0FFF7B3FC401BDB
:100FD0000228F5D9032040E0236B5A1E636B1B02E5
:100FE00043EA0213A26B120943EA4243E26A134343
:100FF000E26B5208013A43EA4253226C5208013A2A
:1010000043EA42630F4AD360136843F0807313606E
:10101000D36843F08073D360FFF78CFC0446094B20
:101020001B6813F0007F06D1FFF784FC001B022829
:10103000F5D9032011E000200FE000200DE0012091
:101040000BE000BF0010024000700040012004E0EF
:10105000012002E0012000E0002002B070BD01206C
:10106000FBE700BF664B1B6803F007038B420CD203
:10107000634A136823F007030B431360136803F0FC
:1010800007038B4201D00120704770B5036813F04D
:10109000020F06D05B4A936823F0F0038468234371
:1010A00093600C460546036813F0010F6CD043684B
:1010B000022B0AD0032B2DD0002B32D1514A1268BB
:1010C00012F0020F07D1012097E04E4A126812F485
:1010D000003F00F093804B498A6822F003021343DB
:1010E0008B60FFF727FC06466B68022B20D0032B92
:1010F0002DD0002B3AD0434B9B6803F00C03042BFC
:1011000042D0FFF717FC801B41F288339842F2D996
:10111000032072E03B4A126812F0007FDBD101200D
:101120006BE0384A126812F4806FD4D1012064E079
:10113000344B9B6803F00C03082B25D0FFF7FAFB18
:10114000801B41F288339842F2D9032055E02D4BA1
:101150009B6803F00C030C2B16D0FFF7EBFB801BF6
:1011600041F288339842F2D9032046E0254B9B6830
:1011700013F00C0F08D0FFF7DDFB801B41F2883322
:101180009842F3D9032038E01D4B1B6803F0070396
:10119000A3420CD91A4A136823F0070323431360B0
:1011A000136803F00703A34201D0012025E02B6858
:1011B00013F0040F06D0134A936823F4E063E96840
:1011C0000B4393602B6813F0080F07D00D4A936808
:1011D00023F46053296943EAC1039360FFF708FCD5
:1011E000084B9B68C3F30313074AD35CD840074BF3
:1011F00018600F20FFF774FB002070BD0120FCE792
:1012000000200240001002400C500008480000205E
:10121000014B1868704700BF4800002008B5FFF771
:10122000F7FF044B9B68C3F30223034AD35CD84007
:1012300008BD00BF001002401C50000808B5FFF7B1
:10124000E7FF044B9B68C3F3C223034AD35CD84037
:1012500008BD00BF001002401C500008F0B482B06E
:10126000002341E0D0F82CC02CEA040CC6F3C004E3
:101270009C4044EA0C04C46286E0062400E000249A
:10128000B4403C430235664E46F82540654C25681F
:10129000D44304EA05064F6817F4803F01D042EAC0
:1012A0000506604D2E606D6804EA05064F6817F468
:1012B000003F01D042EA05065A4D6E60AD6804EA6F
:1012C00005064F6817F4801F01D042EA0506554D08
:1012D000AE60ED682C404E6816F4001F01D042EA63
:1012E0000504504AD46001330A6832FA03F400F06E
:1012F000938001249C402240F5D04D68022D01D0FE
:10130000122D10D1DE08083650F826C003F007056C
:10131000AF000F25BD402CEA050C0D69BD4045EA24
:101320000C0540F8265006685F000325BD40ED43DC
:1013300005EA060C4E6806F00306BE4046EA0C06B7
:1013400006604E6806F1FF3CBCF1010F03D9112E77
:1013500001D0122E11D1866805EA060CCE68BE4077
:1013600046EA0C068660466826EA040C4E68C6F318
:1013700000169E4046EA0C0646604E6806F0030CD6
:10138000BCF1030F3FF46EAFC46825408C68BC40CD
:101390002C43C4604C6814F0805FA4D0224C256EAE
:1013A00045F001052566246E04F001040194019CBA
:1013B0009D08AE1C1A4C54F8267003F00304A600D6
:1013C0000F24B44027EA0407B0F1904F3FF457AF21
:1013D000164CA04216D004F58064A04214D004F547
:1013E0008064A04212D004F58064A04210D004F5BD
:1013F0008064A0420ED004F58064A0423FF43DAF6B
:1014000007243DE701243BE7022439E7032437E7BB
:10141000042435E7052433E702B0F0BC704700BF71
:101420000000014000040140001002400004004898
:10143000002231FA02F300F08280F0B50AE00625BE
:1014400000E0002505FA03F3A3425FD0013231FA30
:1014500002F373D00123934013EA0107F6D0056825
:101460005400032606FA04F42543056022FA06FC1C
:101470000CF1080C50F82CE002F00705AD000F2627
:1014800006FA05F52EEA050540F82C508568E44378
:10149000254085604568DB431D404560C5682C409C
:1014A000C460C46A2340C3624FEA920C0CF1020488
:1014B000234B53F8244002F003039B009E4034402A
:1014C000B0F1904FBDD01F4DA84215D005F58065F5
:1014D000A84213D005F58065A84211D005F58065B6
:1014E000A8420FD005F58065A8420DD005F58065AE
:1014F000A842A4D00725A5E70125A3E70225A1E777
:1015000003259FE704259DE705259BE70C4D0CF17E
:10151000020355F8234024EA060645F823600A4BE7
:101520001C68FF433C401C605C683C405C609C68FD
:101530003C409C60DC682740DF6087E7F0BD704777
:101540000000014000040048000401400369194202
:1015500001D100207047012070470AB981627047AD
:1015600081617047024B186800F4C060704700BF8B
:1015700000700040074AD36823F4E0631B041B0C8F
:10158000000200F4E060184340F0BF6040F4003017
:10159000D060704700ED00E030B4174BDB68C3F358
:1015A0000223C3F10704042C28BF04241D1D062DAB
:1015B00018D9033B4FF0FF3505FA04F421EA040182
:1015C000994005FA03F322EA0303194300280BDBD1
:1015D0000901C9B200F1604000F5614080F80013D4
:1015E00030BC70470023E5E700F00F000901C9B2E5
:1015F000024B1954F4E700BF00ED00E014ED00E0E9
:101600000138B0F1807F0AD2064B5860064AF021BB
:1016100082F823100020986007221A60704701208A
:10162000704700BF10E000E000ED00E0F8B50546AF
:101630000F4616461C4639E02CB1FFF77BF9069B96
:10164000C01AA04232D32A68536823F0E0035360E3
:101650006B68B3F5827F0BD0AB6AB3F5005F14D033
:10166000012385F85D30002385F85C30032025E0F8
:10167000AB68B3F5004F02D0B3F5806FECD12A68A8
:10168000136823F040031360E6E72A68136823F425
:10169000005313602A68136843F400531360DFE7B4
:1016A0000123B34209D0B4F1FF3FC5D12B689B6839
:1016B00037EA0303F4D00023F3E70020F8BDF0B5C8
:1016C00083B007460C4615461E4602E0B6F1FF3FC2
:1016D00010D13A6893682340AB423FD0B4F5C06F55
:1016E000F4D1002DF2D1137BDBB28DF807309DF8D9
:1016F0000730EBE72EB1FFF71DF9089BC01AB04287
:10170000E7D33A68536823F0E00353607B68B3F58E
:10171000827F0BD0BB6AB3F5005F14D0012387F83A
:101720005D30002387F85C30032018E0BB68B3F518
:10173000004F02D0B3F5806FECD13A68136823F004
:1017400040031360E6E73A68136823F4005313601C
:101750003A68136843F400531360DFE7002003B0D6
:10176000F0BD70B582B004460D46164600920B4699
:1017700000224FF4C051FFF7A2FFB8B900962B46E4
:10178000002280212046FFF751FFB8B900962B4672
:1017900000224FF4C0612046FFF791FF034650B18D
:1017A000236E43F020032366032304E0236E43F0FB
:1017B000200323660323184602B070BD236E43F056
:1017C000200323660323F6E770B582B004460D4676
:1017D00016464368B3F5827F0FD000962B46002251
:1017E00080212046FFF722FF034698B96268B2F5D0
:1017F000827F15D0184602B070BD8368B3F5004FE4
:1018000002D0B3F5806FE8D12268136823F040035B
:101810001360E2E7236E43F0200323660323E9E726
:10182000A268B2F5004F02D0B2F5806FE2D1009607
:101830002B4600224FF4C0612046FFF740FF0346CD
:101840000028D7D0236E43F0200323660323D1E77B
:10185000002862D010B5044690F85D30002B47D0C8
:10186000022384F85D302268136823F0400313607C
:10187000E368B3F5E06F40D90022B3F5706F04D090
:10188000B3F5E06F01D00021A162216B21B9B3F55E
:10189000E06F35D9022323636368A1680B43216994
:1018A0000B4361690B43A16901F400710B43E169CA
:1018B0000B43216A0B43A06A216803430B60236B2F
:1018C000022B20D0638B03F00403616A0B43616B2E
:1018D0000B43E1680B43216813434B60A36AB3F5E4
:1018E000005F16D000202066012384F85D3010BD13
:1018F00080F85C30FEF7A6FFB2E74FF48052BCE7F9
:1019000001232363C8E721680B6843F400630B607D
:10191000D8E72368E26A1A61E4E70120704790B1D2
:1019200010B50446022380F85D300268136823F086
:1019300040031360FEF7BCFF0020206684F85D00C2
:1019400084F85C0010BD012070472DE9F04182B0A1
:101950001E4690F85C30012B00F0F08004460D46E6
:101960009046012380F85C30FEF7E4FF074694F8C8
:101970005D30DBB2012B09D00220012384F85D30F9
:10198000002384F85C3002B0BDE8F081002D00F047
:10199000CB80B8F1000F00F0C980032384F85D30DC
:1019A00000232366A563A4F83C80A4F83E8023644A
:1019B000A4F84430A4F846302365E364A368B3F583
:1019C000004F1FD0A36AB3F5005F21D023681A68C7
:1019D00012F0400F03D11A6842F040021A60E36827
:1019E000B3F5E06F3DD963681BB1E38F9BB2012B68
:1019F0001FD1236835F8022BDA60E38F013B9BB2DD
:101A0000E38716E02268136843F480431360D9E744
:101A10002268136823F4005313602268136843F4A8
:101A200000531360D2E7002E00F08280B6F1FF3F32
:101A300010D1E38F9BB2002B57D023689A6812F025
:101A4000020FF0D035F8022BDA60E38F013B9BB236
:101A5000E387EEE7FEF76EFFC01BB042E9D3032039
:101A60008BE763681BB1E38F9BB2012B22D1E38F1D
:101A70009BB2012B08D9236835F8022BDA60E38F7B
:101A8000023B9BB2E38715E023682A781A73E38F41
:101A9000013B9BB2E38701350CE02A781A73E38F90
:101AA000013B9BB2E387013504E0002E42D0B6F142
:101AB000FF3F13D1E38F9BB2BBB123689A6812F04A
:101AC000020FF2D0E28F92B2012AE6D935F8022B4A
:101AD000DA60E38F023B9BB2E387EBE7FEF72AFF76
:101AE000C01BB042E6D3032047E7A36AB3F5005F0B
:101AF00014D03A4631462046FFF733FE08B1202382
:101B00002366A36833B901932368DA6801929B685E
:101B10000193019B236E7BB900202EE72268136896
:101B200043F480531360E4E7012026E7012024E713
:101B3000032022E7032020E701201EE7022022E7FE
:101B40002DE9F04385B099460C9D0023ADF80E3089
:101B500090F85C30012B00F0EA8104460F461646EF
:101B6000012380F85C30FEF7E5FE804694F85D3096
:101B7000DBB26268012B15D0B2F5827F0AD0022653
:101B8000012384F85D30002384F85C30304605B0D2
:101B9000BDE8F083A268002A40F0C181042B01D087
:101BA0000226EDE7002F00F0BC81002E00F0BB8183
:101BB000B9F1000F00F0B98194F85D30DBB2042B6D
:101BC00002D0052384F85D30002323662664A4F840
:101BD0004690A4F84490A763A4F83E90A4F83C90E3
:101BE000E3642365A36AB3F5005F2BD0E368B3F524
:101BF000E06F04D8B4F846309BB2012B2DD922688F
:101C0000536823F48053536023681A6812F0400F1E
:101C100003D11A6842F040021A60E368B3F5E06F3E
:101C20007ED963681BB1E38F9BB2012B07D1236878
:101C300037F8022BDA60E38F013B9BB2E3874FF06A
:101C400001093EE02268136823F400531360226800
:101C5000136843F400531360C8E72268536843F4E1
:101C600080535360D0E723681A6812F0040F07D13D
:101C70005A6812F0080F03D01A6842F400721A6012
:101C80002268136843F4805313604FF0000901E0A9
:101C90004FF00009B4F846309BB27BB123689A68D4
:101CA00012F0010F0AD0DB6826F8023BB4F8463088
:101CB000013B9BB2A4F846304FF00109B5F1FF3F5C
:101CC00026D1E38F9BB22BB9B4F846309BB2002BE0
:101CD00000F0CA80B9F1000FDCD0E38F9BB2002B7B
:101CE000D8D023689A6812F0020FD3D037F8022BAD
:101CF000DA60E38F013B9BB2E387E38F9BB2002B5B
:101D0000C6D1A36AB3F5005FADD04FF00009C1E7BB
:101D1000FEF710FEA0EB0800A842D2D303262FE75F
:101D200063681BB1E38F9BB2012B0BD1E38F9BB296
:101D3000012B0AD9236837F8022BDA60E38F023BC4
:101D40009BB2E3874FF0010948E023683A781A73A1
:101D5000E38F013B9BB2E3870137F3E73A781A73CD
:101D6000E38F013B9BB2E387013756E023681A6893
:101D700012F0040F07D15A6812F0080F03D01A6846
:101D800042F400721A602268136843F480531360AF
:101D90004FF0000901E04FF00009B4F846309BB263
:101DA000CBB123689A6812F0010F14D0B4F8462022
:101DB00092B2012A44D9DB6826F8023BB4F84630D7
:101DC000023B9BB2A4F84630B4F846309BB2012BDC
:101DD0002ED94FF00109B5F1FF3F3DD1E38F9BB202
:101DE00023B9B4F846309BB2002B3DD0B9F1000FB7
:101DF000D3D0E38F9BB2002BCFD023689A6812F028
:101E0000020FCAD0E28F92B2012AA7D937F8022B6B
:101E1000DA60E38F023B9BB2E387E38F9BB2002B38
:101E2000B9D1A36AB3F5005FA0D04FF00009B4E7C1
:101E30002268536843F4805353604FF00109CAE7A6
:101E40001B7B3370B4F84630013B9BB2A4F846309C
:101E500001364FF00109BEE7FEF76CFDA0EB08006C
:101E6000A842BBD303268BE6A36AB3F5005F1AD062
:101E700023689A6812F0100F4FD0226E42F00202CF
:101E800022664FF6EF729A600126424629462046A6
:101E9000FFF767FC08B120232366236E002B3FF475
:101EA0006FAE01266CE6CDF800802B46012211466C
:101EB0002046FFF7BBFB28B1236E43F002032366E5
:101EC00003265DE6E368B3F5706F17D023681B7BCC
:101ED000ADF80E30BDF80E30236B022BC8D1CDF813
:101EE00000802B46012211462046FFF79FFB68B178
:101EF000236E43F002032366032641E62368DB6872
:101F00009BB2ADF80E30BDF80E30B1E723681B7BF5
:101F1000ADF80E30BDF80E30AAE70026B5E7022670
:101F20002EE601262CE601262AE6012628E60226D0
:101F30002CE62DE9F04184B004460D4617461E46B6
:101F40000023ADF80E304368B3F5827F19D094F8C2
:101F50005C30012B00F03581012384F85C30FEF702
:101F6000E9FC804694F85D30DBB2012B15D00220ED
:101F7000012384F85D30002384F85C3004B0BDE8B0
:101F8000F0818368002BE2D1042380F85D30009655
:101F900013460A46FFF7D4FDF0E7002D00F0058157
:101FA000002F00F00481042384F85D3000232366B1
:101FB0002564A4F84470A4F84670A363A387E3875C
:101FC000E3642365A36AB3F5005F1AD0E368B3F551
:101FD000E06F27D92268536823F480535360A368C5
:101FE000B3F5004F24D023681A6812F0400F03D1D4
:101FF0001A6842F040021A60E368B3F5E06F23D933
:1020000044E02268136823F40053136022681368C5
:1020100043F400531360B4F84630013B9BB2A4F87C
:102020004630D3E72268536843F480535360D6E7C1
:102030002268136823F480431360D4E7002E00F075
:10204000B880B6F1FF3F13D1B4F846309BB2002BF5
:1020500037D023689A6812F0010FEFD01B7B05F888
:10206000013BB4F84630013B9BB2A4F84630EBE7A5
:10207000FEF760FCA0EB0800B042E5D3032077E751
:10208000002E00F09880B6F1FF3F12D1B4F8463030
:102090009BB2B3B123689A6812F0010FF0D0DB68ED
:1020A00025F8023BB4F84630013B9BB2A4F8463019
:1020B000ECE7FEF73FFCA0EB0800B042E6D30320BC
:1020C00056E7A36AB3F5005F18D042463146204672
:1020D000FFF77AFB08B12023236623689A6812F081
:1020E000100F06D0226E42F0020222664FF6EF7207
:1020F0009A60236E002B62D1002039E722681368B2
:1021000043F480531360CDF800803346012211461A
:102110002046FFF78BFA00284FD1E368B3F5E06F54
:1021200011D92368DB682B80CDF80080334601226B
:1021300011462046FFF77AFA48B1236E43F00203B6
:102140002366032014E723681B7B2B70ECE7E3680E
:10215000B3F5706F1AD02268127BADF80E20BDF86F
:102160000E20B3F5E06FB0D1236B022BADD1CDF8CB
:1021700000803346012211462046FFF757FA68B126
:10218000236E43F0020323660320F1E62368DB6835
:102190009BB2ADF80E30BDF80E3096E723681B7B7E
:1021A000ADF80E30BDF80E308FE70120E0E60120DB
:1021B000DEE60320DCE60320DAE60320D8E6012091
:1021C000D6E60220DAE600230268916811F4C06FB7
:1021D00012D082B004E00268916811F4C06F09D097
:1021E0000133DBB2D2680192019A042BF3D10320B0
:1021F00002B070470020FBE70020704770470000E6
:102200002DE9F04804460168836802691343426976
:102210001343C26913430868A34A024013430B6087
:102220002268536823F44053E1680B435360A1696B
:1022300022689E4B9A4201D0236A1943936823F483
:1022400030630B4393602368994A934227D0994A9D
:10225000934238D0984A93424ED0984A934261D0E4
:10226000974A934274D0914A934200F08A80102595
:102270008E4A934200F0AA80E269B2F5004F00F066
:102280003681082D00F2BE81DFE815F07A01860163
:102290009201BC019E01BC01BC01BC01AA0102F576
:1022A0005842D2F8882002F00302032A09D8DFE856
:1022B00002F0020481060125DAE70425D8E70825A3
:1022C000D6E71025D4E702F5E632D2F8882002F0EE
:1022D0000C020C2A0ED8DFE802F0070D0D0D090DD7
:1022E0000D0D6F0D0D0D0B000025C1E70425BFE797
:1022F0000825BDE71025BBE702F5E432D2F88820B7
:1023000002F03002102A09D005D9202A56D0302AEE
:1023100006D10825ACE71AB90025A9E70425A7E7E7
:102320001025A5E702F5E232D2F8882002F0C002BB
:10233000402A09D005D9802A42D0C02A06D10825D2
:1023400096E71AB9002593E7042591E710258FE752
:1023500002F5E032D2F8882002F44072B2F5807FB4
:102360000BD007D9B2F5007F2CD0B2F5407F06D153
:1023700008257DE71AB900257AE7042578E71025B6
:1023800076E702F5C832D2F8882002F44062B2F54E
:10239000806F0BD007D9B2F5006F15D0B2F5406F42
:1023A00006D1082564E71AB9002561E704255FE72F
:1023B00010255DE702255BE7022559E7022557E76F
:1023C000022555E7022553E7022551E7082D00F2C3
:1023D0001181DFE815F00C000F0116000F0112004B
:1023E0000F010F010F0109004FF400430AE0FEF74F
:1023F00015FF034633B9002093E0FEF7F9FA0346D0
:10240000F8E7304B626802EB4201994200F2F48037
:10241000B3EB023F00F2F280082D66D8DFE805F04A
:1024200005652065306565655800FEF7F7FE0025F7
:10243000070E0602626850082B4616EB000B47F1A8
:10244000000C58466146FDF71BFF03462846A3F5DE
:1024500040711D4A914200F2D3802268D36060E04F
:10246000560800252B46DFF864B04FF0000C1BEB3C
:1024700006004CF10001FDF703FF03462846E6E79E
:10248000FEF7B6FA0025070E0602626850082B46D2
:1024900016EB000B47F1000C58466146FDF7F0FEC5
:1024A00003462846D3E700BFF369FFEF00800040F2
:1024B000003801400044004000480040004C00400B
:1024C000005000400024F400FFFC0F00000024F442
:1024D0005008002700252B4610F5000047F10001A9
:1024E000FDF7CEFE03462846B1E70120AFE7082DF1
:1024F00043D8DFE805F0051823422E424242390056
:10250000FEF78CFE61684B0803EB4002B2FBF1F270
:1025100092B2002022F00F03C2F342021A43236852
:10252000DA60BDE8F088FEF789FE61684B0803EBCE
:102530004002B2FBF1F292B20020EBE763685A0866
:1025400002F1F47202F59042B2FBF3F292B2002073
:10255000E0E7FEF74DFA61684B0803EB4002B2FB7F
:10256000F1F292B20020D5E763685A0802F5803292
:10257000B2FBF3F292B20020CCE701200022C9E7BF
:10258000FEF74CFE636800EB5300B0FBF3F02368EA
:1025900080B2D8600020C4E7FEF750FE636800EB0D
:1025A0005300B0FBF3F0236880B2D8600020B8E796
:1025B00061684A0802F5740202F51052B2FBF1F2AA
:1025C00092B2DA600020ACE7FEF712FA636800EB23
:1025D0005300B0FBF3F0236880B2D8600020A0E77E
:1025E00061684A0802F50042B2FBF1F292B2DA6089
:1025F000002096E7012094E7012092E7012090E770
:1026000001208EE701208CE7436A13F0010F06D00A
:102610000268536823F40033816A0B435360436AB2
:1026200013F0020F06D00268536823F48033C16AA6
:102630000B435360436A13F0040F06D002685368DB
:1026400023F48023016B0B435360436A13F0080F9C
:1026500006D00268536823F40043416B0B43536078
:10266000436A13F0100F06D00268936823F4805376
:10267000816B0B439360436A13F0200F06D002680E
:10268000936823F40053C16B0B439360436A13F0C8
:10269000400F0AD00268536823F48013016C0B4387
:1026A0005360036CB3F5801F0BD0436A13F0800FA7
:1026B00006D00268536823F40023816C0B435360F7
:1026C00070470268536823F4C003416C0B435360A6
:1026D000EBE72DE9F04105460F4616469846069C65
:1026E0002B68DB6937EA03030CBF01230023B342E5
:1026F0001DD1B4F1FF3FF3D02CB1FEF71BF9A0EBD5
:102700000800A042ECD92A68136823F4D073136040
:102710002A68936823F001039360202385F86930C9
:1027200085F86A30002385F86830032000E0002037
:10273000BDE8F08130B583B004460023C366FEF7E0
:10274000F9F8054623681B6813F0080F0ED12368BB
:102750001B6813F0040F17D1202384F8693084F824
:102760006A30002084F8680003B030BD6FF07E430B
:102770000093034600224FF400112046FFF7A9FF03
:102780000028E4D00320EFE76FF07E4300932B4650
:1027900000224FF480012046FFF79BFF0028DBD08A
:1027A0000320E1E778B310B5044690F869300BB325
:1027B000242384F869302268136823F0010313602E
:1027C0002046FFF71DFD012813D0636ABBB92268BC
:1027D000536823F4904353602268936823F02A03DC
:1027E00093602268136843F0010313602046FFF7EB
:1027F000A1FF10BD80F86830FFF700FDD8E7204644
:10280000FFF702FFE3E70120704700000F49D1F80E
:10281000883043F47003C1F888300D4B1A6842F0D9
:1028200001021A60002098601A6822F0A85222F46F
:1028300010221A604FF48052DA601A6822F4802263
:102840001A6098614FF000638B60704700ED00E004
:10285000001002400246A0F13003D8B2092812D974
:10286000A2F16103DBB2052B08D9A2F14103DBB26F
:10287000052B07D8A2F13700C0B27047A2F157006C
:10288000C0B2704700207047F8B506460F460024D6
:10289000254606E02D01FFF7DDFF05440136013432
:1028A000E4B23078A0F13003DBB2092BF2D9A0F109
:1028B0006103DBB2052BEDD9A0F14103DBB2052B9F
:1028C000E8D907B13C702846F8BD70B403782D2BC9
:1028D00003D00026354600230BE001300126F9E73E
:1028E00003EB83035C00A2F1300323440130013584
:1028F000EDB20278A2F13004E4B2092CF0D901B1B2
:102900000D7006B15B42184670BC704770B582B05E
:1029100004460E46002502E09DF807301C4423784B
:1029200073B101238DF8073023783A2BF4D00DF1E1
:1029300007012046FFF7A8FF6B1C7055DDB2EBE7DF
:1029400002B070BD70B582B004460E46002502E0AC
:102950009DF807301C44237873B101238DF80730AC
:1029600023782E2BF4D00DF107012046FFF7ADFFA1
:102970006B1C7055DDB2EBE702B070BDF8B50446D4
:102980000E461546D0F818710846FDF721FCD4F81C
:10299000602781B23046B847002818DDD4F81C31D2
:1029A000D4F86027002128469847002811DD00232D
:1029B0002B540A49284601F024F808B10020F8BD3C
:1029C0000749284601F01DF828B10220F7E7042046
:1029D000F5E70420F3E70420F1E700BF54500008B6
:1029E000605000082DE9F04104460E4690461F460F
:1029F0000846FDF7EDFB85B215F0010F2CD1D4F898
:102A00001831D4F86027294630469847854225D1A9
:102A1000D4F81831D4F86027394640469847B84270
:102A20001ED1D4F81C31D4F86027002106989847AD
:102A3000002817DD0023069A13540C49104600F0B5
:102A4000E0FF10B10020BDE8F0810949069800F0D0
:102A5000D8FF48B10220F6E70220F4E70420F2E7AD
:102A60000220F0E70420EEE70420ECE754500008D1
:102A70006050000838B50546881C2A4900F0DCFF84
:102A8000002309E020220146284600F0A5FF254941
:102A9000002000F0D1FF2346002841D05C1CE4B2A6
:102AA000062BF4D801A252F823F000BF852A0008B3
:102AB000C92A0008D72A0008E52A0008F32A0008D6
:102AC000012B00080D2B00081022014605F1200003
:102AD00000F082FFDBE71022014605F1300000F034
:102AE0007BFFD4E71022014605F1400000F074FF9F
:102AF000CDE71022014605F1500000F06DFFC6E75A
:102B00000021FFF7E2FEC5F88000C0E7064900F0AB
:102B100093FF2022014605F1600000F05DFFB6E75B
:102B200038BD00BF685000080C51000870B50E4653
:102B30004149023000F080FF034600240FE02122CB
:102B40001946304600F048FF3B49002000F074FF72
:102B5000034618B110F8012C2C2A68D02C46002B03
:102B600068D0651CEDB20B2CEED801A252F824F00F
:102B70003F2B0008A12B0008AD2B0008BB2B000841
:102B8000C92B0008D72B0008E32B0008EF2B000807
:102B9000FB2B0008072C0008132C0008212C000830
:102BA00021221946B01800F017FFCDE70021184682
:102BB000FFF78BFE86F84200C6E700211846FFF7B4
:102BC00084FE86F84300BFE700211846FFF77DFE2C
:102BD00086F84700B8E706F148011846FFF7B2FE4D
:102BE000B2E706F14C011846FFF7ACFEACE706F180
:102BF00050011846FFF7A6FEA6E706F15401184655
:102C0000FFF7A0FEA0E706F158011846FFF79AFE6D
:102C10009AE700211846FFF758FE86F8440093E72C
:102C200000211846FFF751FE86F846008CE7023473
:102C3000E5B293E770BD00BF68500008F8B50E46D6
:102C40001F46D0F81C3100F5907502F10801D0F84C
:102C5000602789B22846984784B2072C10D9A4F17E
:102C600008000949284400F0CCFE58B1A4F108023C
:102C700092B23A802946304600F0FEFD0020F8BDB1
:102C80000420FCE70420FAE7545000082DE9F04145
:102C900007460D4611461E46D0F81C31D0F8602775
:102CA0002846984784B2072C29D9A4F108031D446B
:102CB0001549284600F0A5FE20B1083C34800020CC
:102CC000BDE8F08107F590782A686B68C7F8202185
:102CD000C7F82431D7F81C31D7F86027082107F549
:102CE0009470984785B2084908EB050000F089FE0A
:102CF00038B12C44A4B2083C34800020E0E7042022
:102D0000DEE70420DCE700BF545000082DE9F04165
:102D100004460D4690461E46D0F818710846FDF749
:102D200057FAD4F8602781B22846B847002819DD41
:102D3000D4F81C31D4F86027022104F5907098472C
:102D4000022811D1082E06D9069B3246414620465C
:102D5000FFF79CFF09E0069B324641462046FFF7FD
:102D60006DFF02E0042000E00420BDE8F0810000D7
:102D700070B504464FF6FF73C0F86037D0F80C31D9
:102D8000984768B904F59076324607492046FFF720
:102D9000F5FD054628B931462046FFF76BFE00E0F9
:102DA0000225284670BD00BF9C50000830B4029D2B
:102DB00078B181B18AB195B1039A92B1C0F80C1182
:102DC000C0F81851C0F81C21C0F81431002030BCE4
:102DD00070470220FBE70220F9E70220F7E7022014
:102DE000F5E70220F3E70000F8B5054616461F4652
:102DF00000F590740A461C49204600F0CDFD22469D
:102E000021462846FFF7BAFD034608B11846F8BD2B
:102E100032461649204600F0BFFD2246214628468C
:102E2000FFF7ACFD03460028F0D185F884703A46E0
:102E30000F49204600F0B0FD224621462846FFF704
:102E40009DFD03460028E1D10A4B1868C5F8200112
:102E5000224621462846FFF791FD03460028D5D19A
:102E6000012285F8CA20D1E76C5000087450000890
:102E70007C5000088450000870B5044600F5907539
:102E8000094B1868C4F820012A4629462046FFF756
:102E900075FD064608B1304670BD04F1850128462F
:102EA000FFF744FEF7E700BF9850000870B50446EE
:102EB0000E4600F590710A4B1868C4F820010A46C6
:102EC0002046FFF75BFD054608B1284670BD054961
:102ED00004F5917000F0B0FD3146FFF717FDF4E7FF
:102EE000905000089450000870B50546164600F54D
:102EF00090740A460A49204600F04EFD22462146BB
:102F00002846FFF73BFD044608B1204670BD054941
:102F100005F5917000F090FD3146FFF713FDF4E7E1
:102F2000885000080C51000870B582B005460E4666
:102F300000F590744A782D49204600F02DFD224678
:102F400021462846FFF71AFD034610B1184602B085
:102F500070BD32782649204600F01EFD22462146EB
:102F60002846FFF70BFD03460028EFD13378012BED
:102F700001D1B3885BBB72881E49204600F00CFD6E
:102F8000224621462846FFF7F9FC03460028DDD1FA
:102F9000B279F379317A707A01900091164920461E
:102FA00000F0FAFC224621462846FFF7E7FC0346DC
:102FB0000028CBD1114B1868C5F820019B88A3804D
:102FC000224621462846FFF7D9FC0346BEE7728811
:102FD0000B49204600F0E0FC224621462846FFF738
:102FE000CDFC03460228C6D1B0E700BFD850000888
:102FF000E0500008F0500008F850000808510008A0
:10300000E85000082DE9F04383B0064691461D467E
:10301000DDF82880B3F5966F01D34FF49665A8F8D4
:10302000005006F590740A461B49204600F0B4FC97
:10303000224621463046FFF7A1FC074628B1022F61
:1030400026D0384603B0BDE8F0830B9A13492046DA
:1030500000F0A2FC224621463046FFF78FFC0746CF
:103060000028ECD12A460E49204600F095FC009439
:103070002B464A4621463046FFF7B4FC0746002857
:10308000DDD10849204600F0BCFC0028D7D002273B
:103090000023A8F80030D4E7D8500008BC5000083E
:1030A000C4500008D0500008B3F5966F43D8F0B56F
:1030B00083B01D4617460A46044600F590761F4920
:1030C000304600F069FC324631462046FFF756FC98
:1030D000034610B1184603B0F0BD2A4618493046E1
:1030E00000F05AFC324631462046FFF747FC0346C3
:1030F00018B1002208990A80ECE7099A1149304674
:1031000000F04AFC324631462046FFF737FC0346C2
:103110000028DFD10C4B1868C4F820011B7984F813
:103120002431089B00932B463A4631462046FFF750
:10313000EDFD0346CEE7022318467047D85000083D
:10314000A4500008AC500008B45000082DE9F0412C
:103150008AB0434B9A6D42F400429A659A6D02F42C
:1031600000420192019ADA6C42F00202DA64DA6CEF
:1031700002F002020292029ADA6C42F00402DA646D
:10318000DA6C02F004020392039ADA6C42F0100245
:10319000DA64DB6C03F010030493049B314E0022CD
:1031A0004FF400513046FEF7D8F94FF40053059321
:1031B0000124069400250795089505A93046FEF7D9
:1031C0004DF802260596284B069307950895274F3C
:1031D00005A93846FEF742F84FF48073059306942C
:1031E00007950895099505A93846FEF737F8224650
:1031F00021463846FEF7B1F90594069407950894E0
:1032000005A93846FEF72AF84FF480630593069621
:10321000079508944FF00608CDF82480A7F50067BD
:1032200005A93846FEF71AF84FF480530593069621
:1032300007950894CDF8248005A93846FEF70EF8C6
:103240004FF400630593069607940894CDF8248004
:1032500005A93846FEF702F80AB0BDE8F08100BFC4
:103260000010024000040048000011100010004847
:1032700070B582B0FDF75EFB0646484C484B2360B4
:103280002046FFF763FF4FF4827363600023A3605F
:103290004FF47062E260236163614FF40072A261D7
:1032A0001022E26123626362A362E3622046FEF7BA
:1032B000CFFA00286ED13B4C00224FF4807120469B
:1032C000FEF74BF90A20FDF73BFB01224FF480711A
:1032D0002046FEF742F94FF4FA70FDF731FB002269
:1032E00001212046FEF739F90A20FDF729FB0024C9
:1032F00002212C48FEF72AF901281ED14FF6FF7350
:1033000001220DEB04012548FEF713FE05460234A9
:10331000E4B2FDF70FFB801BB0F5803F01D2002D1A
:10332000E6D0012211461F48FEF717F90A20FDF7E3
:1033300007FB4FF0FF3002B070BD9DF80030152B39
:103340001DD19DF80130152B19D19DF802300D2BA0
:1033500015D19DF803300A2B11D19DF804303E2B76
:103360000DD19DF80530202B09D1012211460D48C1
:10337000FEF7F3F80A20FDF7E3FA0020DBE701226D
:1033800011460848FEF7E9F80A20FDF7D9FA4FF090
:10339000FF30D0E74FF0FF30CDE700BF64010020E1
:1033A000003C00400010004808B50248FEF7B7FA9C
:1033B000002008BD64010020F0B583B007460E462A
:1033C0001446FDF7B7FA054602212948FEF7BEF874
:1033D00001280FD0FDF7AEFA401BA042F4D901221C
:1033E00011462348FEF7B9F80A20FDF7A9FA4FF075
:1033F000FF300DE0002201211D48FEF7AEF80A2043
:10340000FDF79EFA012E05D816F0010F15D130B246
:1034100003B0F0BD2346720839461648FEF795FA08
:103420000028F1D0012211461148FEF796F80A2033
:10343000FDF786FA4FF0FF30EAE7374417F8013C12
:103440008DF804300A238DF805302346012201A9A6
:103450000848FEF77AFA0028D9D00122114604481C
:10346000FEF77BF80A20FDF76BFA4FF0FF30CFE74D
:10347000001000486401002008B5FDF761FA08BD9E
:103480002DE9F04182B0054688461646FDF752FA0E
:1034900007463848FEF797FE012211463648FEF7E8
:1034A0005CF80A20FDF74CFA02213348FEF74EF88B
:1034B00001280AD0FDF73EFAC01BB042F4D94FF004
:1034C000FF34204602B0BDE8F081002201212A48E5
:1034D000FEF743F80A20FDF733FA002421E03346D3
:1034E000012201A92348FEF724FD9DF80530152B84
:1034F00023D002212048FEF729F8012803D09DF8A7
:103500000530152B1DD09DF804302B709DF805302B
:103510006B70023424B20235FDF70CFAC01BB042C6
:103520001DD802211448FEF711F801280ED1444598
:10353000D5DBB8F1000FD2D008E00120FFF79CFFE7
:10354000D7E79DF804302B70013424B201221146D4
:103550000948FEF702F80A20FDF7F2F9B1E7012267
:1035600011460548FDF7F9FF0A20FDF7E9F94FF08C
:10357000FF34A6E7640100200010004800B583B0C6
:103580000B4B01930B4B00930B4B0C4A0C490D4812
:10359000FFF70CFC18B1012003B05DF804FB0948EB
:1035A000FFF7E6FB08B90020F6E70120F4E700BFCB
:1035B00081340008B933000879340008A9330008C1
:1035C00071320008C801002008B513460A460146BA
:1035D0000648FFF709FC08B1012008BD0348FFF7C2
:1035E0004BFC08B90020F8E70120F6E7C8010020ED
:1035F00008B501460348FFF759FC08B9002008BD8B
:103600000120FCE7C8010020054B93F8CA302BB11C
:10361000034BD3F8CD300360002070470120704782
:10362000C801002000B585B08DF80100BDF8182054
:10363000ADF80220BDF81C20ADF80420003118BF01
:1036400001218DF800101A788DF806205A788DF82F
:1036500007209A788DF80820DB788DF809306946C4
:103660000448FFF761FC18B9002005B05DF804FBC1
:103670000120FAE7C801002010B582B0049C019433
:10368000009313460A4601460448FFF7BBFC10B9F5
:10369000002002B010BD0120FBE700BFC8010020E0
:1036A00010B582B0049C0194009313460A4601466B
:1036B0000448FFF7F9FC10B9002002B010BD01204A
:1036C000FBE700BFC801002008B50A4601460248D2
:1036D000FFF70AFC08BD00BFC801002010B586B086
:1036E000044648B90D4BDA6C42F00202DA64DB6C36
:1036F00003F002030093009B4FF4804301930123E6
:103700000293002303930223049301A9044B53F86B
:103710002400FDF7A3FD06B010BD00BF001002405D
:103720005800002008B501224FF48041024B53F8A5
:103730002000FDF712FF08BD58000020F0B589B049
:103740000E46044648B9214BDA6C42F00202DA64B4
:10375000DB6C03F002030093009B4CB91B4BDA6C4B
:1037600042F00202DA64DB6C03F002030193019B76
:103770004CB9164B1A6E42F480421A661B6E03F463
:1037800080430293029B40230393022504950695F0
:10379000002305930727079703A90D4B53F824002F
:1037A000FDF75CFD802303930495079703A9094B5C
:1037B00053F82400FDF752FD074B53F824303360D3
:1037C0003046FEF7EFFF09B0F0BD00BF0010024029
:1037D000500000204C00002054000020DFF834D0BE
:1037E000002103E00C4B5B58435004310B480C4B59
:1037F00042189A42F6D30B4A02E0002342F8043BF7
:10380000094B9A42F9D3FFF701F800F011F8FCF7E1
:10381000E3FEFEE700800120C05100080000002008
:10382000C0000020C0000020F0090020FEE70000DA
:1038300070B50D4E0D4CA41BA4100025A54209D156
:103840000B4E0C4C01F0F8F9A41BA4100025A54266
:1038500005D170BD56F8253098470135EEE756F88A
:10386000253098470135F2E7B0510008B051000803
:10387000B0510008B451000810B5431E0A449142EB
:1038800000D110BD11F8014B03F8014FF7E70244D6
:103890000346934200D1704703F8011BF9E700008B
:1038A0000FB40A4B13B51C6824B1A36913B92046A1
:1038B00000F0C6FA05AB049AA1680193204600F017
:1038C000D9FD02B0BDE8104004B070475C00002094
:1038D00070B50E46054618B183690BB900F0B0FA11
:1038E000AB69AC6813B9284600F0AAFA234B9C4296
:1038F00017D16C68A3891B071DD52369DBB1013E75
:10390000A36816F8011F013BA360E9B9002B2EDA6A
:1039100022460A21284600F0E3F8013011D00A209F
:1039200011E0174B9C4201D1AC68E3E7154B9C4278
:1039300008BFEC68DEE72146284600F023F900289E
:10394000DDD04FF0FF3070BD002B04DAA2699A423F
:1039500006DC0A2904D023685A1C22601970CFE7BC
:103960002246284600F0BCF80130C9D1E9E72368B7
:103970000A205A1C22601870E5E700BF3451000885
:103980005451000814510008024B01461868FFF713
:103990009FBF00BF5C0000200EB400B59CB01DAB03
:1039A000029006906FF0004109480791049109497F
:1039B00053F8042B05910068019302A900F038FC2C
:1039C000029B00221A701CB05DF804EB03B0704734
:1039D0005C0000200802FFFF70B50139044602B9FF
:1039E00070BD234611F8015F03F8015B561E2DB927
:1039F0001444A342F4D003F8015BFAE71C463246B4
:103A0000EDE7F0B503787BB1044623782046661CC9
:103A10007BB14A1E631E12F8015F4DB113F8017F9E
:103A2000AF423446F7D0F0E70B78002B18BF0020E8
:103A3000F0BD1846FCE70000134B2DE9F0411D686E
:103A4000AC6D06460F46B4B9502000F0E7FAA86501
:103A5000C0E90044C0E90244C0E90444C0E90A44A2
:103A6000C0E90C44C0E90E44C0E91044C0E9124466
:103A7000846104774462AA6D394630460123BDE86B
:103A8000F04100F003B800BF5C000020F0B518B9A9
:103A9000106808B9F0BD204604460F4614F8015BD3
:103AA00017F8016B1EB96DB915602846F2E7B542EB
:103AB000F6D1002BEFD114600370EBE72B460DE03D
:103AC00026B91C4623460F4613F8015B17F8016B15
:103AD000B542F5D1002DF1D0002121701360D9E756
:103AE000F8B50E461446054618B183690BB900F0C7
:103AF000A7F9214B9C422AD16C68A369A360A389D2
:103B00001A072ED5236963B323692068C01A636935
:103B1000F6B28342374604DC2146284600F026F9F7
:103B200028BBA368013BA36023685A1C22601E7057
:103B300063690130834204D0A389DB0719D50A2EBB
:103B400017D12146284600F011F990B10FE00B4B38
:103B50009C4201D1AC68D0E7094B9C4208BFEC689D
:103B6000CBE72146284600F00DF80028CCD04FF0D6
:103B7000FF373846F8BD00BF3451000854510008E3
:103B800014510008324B70B51D6806460C4625B12D
:103B9000AB6913B9284600F053F92E4B9C420FD164
:103BA0006C68B4F90C309AB215072CD4D00611D435
:103BB0000922326043F04003A3814FF0FF303EE022
:103BC000254B9C4201D1AC68EBE7244B9C4208BFDB
:103BD000EC68E6E7510712D5616B41B104F144038B
:103BE000994202D0304600F021FA00236363A38992
:103BF00023F02403A3810023636023692360A38946
:103C000043F00803A38123694BB9A38903F420730C
:103C1000B3F5007F03D02146304600F0BFF9A289FA
:103C200012F001030CD00023A36063695B42A3611F
:103C3000236953B9B4F90C3013F08000BAD170BDC8
:103C4000920758BF6369A360F2E70020F7E700BF5F
:103C50005C00002034510008545100081451000841
:103C60008A892DE9F041054610070C4658D44B6867
:103C7000002B05DC0B6C002B02DC0020BDE8F08182
:103C8000E66A002EF9D0002312F480522F68216AD0
:103C90002B6032D0606DA3895A0705D56368C01ABE
:103CA000636B0BB1236CC01A00230246E66A216ADB
:103CB0002846B047431CA38906D129681D2948D846
:103CC000294ACA40D60744D500226260D904226935
:103CD000226004D5421C01D12B6803B96065616B79
:103CE0002F600029C9D004F14403994202D028462C
:103CF00000F09CF900206063C0E701232846B0472C
:103D0000411CC8D12B68002BC5D01D2B01D0162B10
:103D100001D12F60B1E7A38943F04003A381ADE750
:103D20000F69002FA9D093070E6808BF4B690F6079
:103D300018BF0023A6EB07088B60B8F1000F9CDDCD
:103D400043463A46216AA66A2846B047002806DC60
:103D5000A38943F04003A3814FF0FF308EE707446F
:103D6000A8EB0008E9E700BF0100402038B50B6967
:103D700005460C46DBB118B183690BB900F060F859
:103D80000C4B9C4209D16C68B4F90C307BB12146D4
:103D90002846BDE83840FFF763BF074B9C4201D17E
:103DA000AC68F1E7054B9C4208BFEC68ECE70020EB
:103DB00038BD00BF345100085451000814510008A8
:103DC000002310B50446C0E9003383608181436657
:103DD000C281C0E904338361194608225C30FFF7D1
:103DE00056FD054B6362054BA362054BE362054B31
:103DF0002462236310BD00BFD1490008F3490008C5
:103E00002B4A00084F4A0008014900F085B800BF5E
:103E10006D3D000870B54A1E682555430E4605F1F4
:103E2000740100F051F9044640B10021C0E90016C8
:103E30000C30A06005F16802FFF729FD204670BD37
:103E4000836910B5044633BBC0E912330365124BD6
:103E5000124A1B688262984204BF0123836100F00A
:103E60001FF86060204600F01BF8A060204600F0BC
:103E700017F80022E06004216068FFF7A1FF01222B
:103E80000921A068FFF79CFF02221221E068FFF7DA
:103E900097FF0123A36110BD10510008093E0008DF
:103EA000F8B51B4B1E68B369074613B93046FFF7D8
:103EB000C7FF4836D6E90134013B03D5336833B137
:103EC0003668F7E7B4F90C506DB16834F4E70421B3
:103ED0003846FFF79FFF30600028F1D10C233B608C
:103EE00004462046F8BD0B4B6566C4E90055A56045
:103EF000C4E90335C4E905550822294604F15C00EC
:103F0000FFF7C5FCC4E90D55C4E91255E9E700BF48
:103F1000105100080100FFFF2DE9F8438046894653
:103F200000F14804002614B93046BDE8F883D4E90E
:103F30000175013F01D52468F5E7AB89012B07D94D
:103F4000B5F90E30013303D029464046C847064331
:103F50006835EEE770B50E46B1F90E10002996B03F
:103F600014461D4607DA00232B60B3891A0610D4C5
:103F70004FF480630EE06A4600F090FD0028F2DB0B
:103F8000019A02F47042A2F500535A425A412A6043
:103F9000EEE740230020236016B070BD8B8973B517
:103FA0009D0706460C4607D504F1470323602361AD
:103FB0000123636102B070BD01AB6A46FFF7CAFF1F
:103FC00000990546304600F07FF848B9B4F90C3046
:103FD0009A05EFD423F0030343F00203A381E3E740
:103FE0000D4BB362A389206043F08003A381009B43
:103FF0006361019B20615BB1B4F90E10304600F0A3
:104000005FFD28B1A38923F0030343F00103A381DB
:10401000A3891D43A581CDE7093E0008024B014657
:10402000186800F051B800BF5C00002038B50546A4
:10403000002945D051F8043C0C1F002BB8BFE418F0
:1040400000F079FD1F4A1368104633B963601460AD
:104050002846BDE8384000F06FBDA3420CD9216866
:104060006218934204BF1A685B68636004BF521809
:1040700022600460ECE713465A680AB1A242FAD9FA
:1040800019685818A0420BD1206801445818824280
:104090001960DDD1106852685A6001441960D7E791
:1040A00002D90C232B60D3E7206821188A4204BF71
:1040B00011685268626004BF091821605C60C7E73C
:1040C00038BD00BFDC00002070B5CD1C25F0030515
:1040D00008350C2D38BF0C25002D064601DBA94202
:1040E00003D90C233360002070BD00F024FD214A69
:1040F0001468214691B9204C23681BB9304600F062
:1041000057FC20602946304600F052FC431C24D165
:104110000C233360304600F00FFDE4E70B685B1BB7
:1041200018D40B2B0FD90B60CD50CC18304600F0B3
:1041300003FD04F10B00231D20F00700C31AD3D0A8
:104140005A42E250D0E78C424B6816BF636013605E
:104150000C46EBE70C464968CCE7C41C24F003048A
:10416000A04205D0211A304600F022FC0130CFD009
:104170002560DBE7DC000020E00000202DE9F047AF
:104180008E689E4282460C469046994637D88A8968
:1041900012F4906F31D0256809696F1A656902239E
:1041A00005EB450595FBF3F509F101033B449D4201
:1041B00038BF1D46530530D52946FFF785FF064613
:1041C00050B90C23CAF80030A38943F04003A381FF
:1041D0004FF0FF30BDE8F0873A462169FFF74CFB0E
:1041E000A38923F4906343F08003A3812661656172
:1041F0003E44ED1B2660A5604E464E4500D94E4616
:1042000032464146206800F07DFCA3689B1BA360FA
:1042100023681E4426600020DCE72A4600F08DFC5F
:1042200006460028E2D121695046FFF7FFFEC8E7A5
:104230002DE9F04F1D468B891F069DB080460C4628
:1042400016460FD50B696BB94021FFF73DFF206083
:10425000206128B90C23C8F800304FF0FF30C8E0C7
:10426000402363610023099320238DF829303023F4
:104270008DF82A3003954FF0010B37463D4615F86F
:10428000013B0BB1252B3ED1B7EB060A0BD05346B1
:10429000324621464046FFF771FF013000F0A4800E
:1042A000099B534409933B78002B00F09D80002329
:1042B0004FF0FF32CDE90523049307938DF8533077
:1042C0001A932F46052217F8011B5048FBF788FF69
:1042D000049BD0B9D90644BF20228DF853201A0779
:1042E00044BF2B228DF853202A782A2A15D0079A0A
:1042F0002F4600200A25394611F8013B303B092B97
:104300004DD9B8B10FE02F46B8E7404A801A0BFAF2
:1043100000F0184304903D46D3E7039A111D12683C
:104320000391002A01DB079204E0524243F00203AA
:10433000079204933B782E2B0CD17B782A2B33D118
:10434000039B1A1D1B680392002BB8BF4FF0FF336D
:10435000023705932E4D397803222846FBF740FF9C
:1043600038B14023401B03FA00F0049B034301379C
:104370000493397827488DF8281006227E1CFBF715
:104380002FFF002838D0244B13BB039B073323F0A7
:10439000070308330393099B4B4409936DE705FB1F
:1043A000023201200F46A6E7002301370593194684
:1043B0000A25384610F8012B303A092A03D9002B78
:1043C000C8D00591C6E705FB012101230746F0E7A8
:1043D00003AB00932246114B04A94046AFF3008083
:1043E000B0F1FF3F8146D6D1A3895B063FF535AFDB
:1043F00009981DB0BDE8F08F03AB00932246074B30
:1044000004A9404600F0C2F9EAE700BF7451000871
:104410007A5100087E510008000000007D4100082C
:104420009368013B002B10B4936008DA9469A342AF
:1044300001DB0A2903D15DF8044BFFF751BB136878
:10444000581C1060197008465DF8044B7047F8B5A9
:1044500006460F461446D518AC4201D1002007E0AD
:104460003A4614F8011B3046FFF7DAFF431CF3D13C
:10447000F8BD00002DE9F04F0C469DB017461D46D3
:10448000064618B183690BB9FFF7DAFC7C4B9C42F6
:1044900058D17468A38918075ED52369002B5BD0B7
:1044A0000023099320238DF8293030238DF82A30FA
:1044B00003954FF0010BB846454615F8013B0BB18B
:1044C000252B54D1B8EB070A0BD053463A46214668
:1044D0003046FFF7BCFF013000F0C280099B534417
:1044E000099398F80030002B00F0BA8000234FF0B9
:1044F000FF32CDE90523049307938DF853301A93C7
:10450000A846052218F8011B5E48FBF769FE049BCC
:1045100078BBD90644BF20228DF853201A0744BF28
:104520002B228DF853202A782A2A2AD0079AA846C7
:1045300000200A25414611F8013B303B092B69D97F
:1045400060B324E0504B9C4201D1B468A2E74F4BCA
:104550009C4208BFF4689DE721463046FFF712FBF6
:1045600000289DD04FF0FF301DB0BDE8F08FA84669
:10457000A2E7444A801A0BFA00F01843049045461B
:10458000BEE7039A111D12680391002A01DB07920E
:1045900004E0524243F002030792049398F800307B
:1045A0002E2B0ED198F801302A2B38D1039B1A1DDF
:1045B0001B680392002BB8BF4FF0FF3308F10208CD
:1045C0000593334D98F8001003222846FBF708FEA8
:1045D00040B14023401B03FA00F0049B034308F161
:1045E0000108049398F800102A488DF82810062234
:1045F00008F10107FBF7F4FD002837D0264B1BBB61
:10460000039B073323F0070308330393099B4B44B1
:10461000099350E705FB0232012088468AE7002310
:1046200008F10108059319460A25404610F8012BA8
:10463000303A092A03D9002BC3D00591C1E705FB05
:10464000012101238046F0E703AB00932246134B80
:1046500004A93046AFF30080B0F1FF3F8146D5D1C9
:10466000A3895B063FF57EAF09987DE703AB009316
:1046700022460A4B04A9304600F088F8ECE700BF58
:1046800034510008745100085451000814510008B6
:104690007A5100087E510008000000004F440008D5
:1046A0002DE9F04791461F468A680B69DDF82080A6
:1046B0009342B8BF1346C9F8003091F8432006462C
:1046C0000C4612B10133C9F800302368990642BF85
:1046D000D9F800300233C9F80030256815F0060516
:1046E00007D104F1190AE368D9F800209B1AAB42FC
:1046F00028DC94F843302268003318BF0123920667
:104700002DD404F1430239463046C047013020D051
:104710002368E568D9F8002003F00603042B08BFDE
:10472000AD1AA36822690CBF25EAE57500259342FE
:10473000C4BF9B1AED184FF000091A344D451AD129
:10474000002008E00123524639463046C047013078
:1047500003D14FF0FF30BDE8F0870135C3E7E11822
:104760005A1C302081F84300224494F8451082F806
:1047700043100233C5E70123224639463046C0477D
:104780000130E6D009F10109D8E700002DE9F04336
:1047900001F1430C0C46097E85B06E29174606468A
:1047A00098460C9A00F0B38022D8632936D00AD8F4
:1047B000002900F0B980582900F0838004F14205F7
:1047C00084F8421032E0642901D06929F6D12068CA
:1047D0001368050603F104012AD51B681160002B3C
:1047E00003DA2D225B4284F843206F480A2239E025
:1047F000732900F09D8008D86F2920D07029DDD161
:10480000236843F02003236003E0752917D078293B
:10481000D4D1782384F84530644855E01368191DD5
:104820001B68116004F1420584F8423001238CE0DA
:104830001B68116010F0400F18BF1BB2CFE7136860
:104840002568181D1060280601D51B6802E068065F
:10485000FBD51B8854486F2914BF0A220822002167
:1048600084F843106568A560002DC0F2958021682A
:1048700021F004012160002B3DD1002D40F08E80FD
:104880006546082A0BD12368DB0708D523696268CF
:104890009A42DEBF302305F8013C05F1FF35ACEB51
:1048A00005032361CDF800803B4603AA214630462C
:1048B000FFF7F6FE01304DD14FF0FF3005B0BDE8F7
:1048C000F083394884F84510136821681D1D1B6862
:1048D00015600A060BD5CA0744BF41F020012160CC
:1048E0001BB9226822F0200222601022B7E74D0691
:1048F00048BF9BB2EFE76546B3FBF2F102FB113311
:10490000C35C05F8013D0B460029F5D1B9E71368F2
:1049100025686169181D106028061B6801D519609B
:1049200002E06A06FBD51980002323616546B9E7DA
:104930001368191D11601D68626800212846FBF785
:104940004FFC08B1401B606063682361002384F85A
:104950004330A7E723692A4639463046C04701302D
:10496000AAD023689B0713D4E068039B9842B8BF82
:104970001846A3E701234A4639463046C04701306E
:104980009AD00135E368039A9B1AAB42F2DCEBE75D
:10499000002504F11909F5E7002BACD1037884F860
:1049A000423004F142056CE7855100089651000839
:1049B00038B5064C002305460846236000F026F96A
:1049C000431C02D1236803B12B6038BDEC090020E1
:1049D00010B50C46B1F90E1000F0D6F80028ABBFA8
:1049E000636DA3891B1823F48053ACBF6365A38157
:1049F00010BD2DE9F0411F468B89DB0505460C46AD
:104A0000164605D502230022B1F90E1000F068F811
:104A1000A389B4F90E1023F48053A38132463B4698
:104A20002846BDE8F04100F017B810B50C46B1F9C2
:104A30000E1000F055F8431CA38915BF606523F4E0
:104A4000805343F48053A38118BFA38110BDB1F9F3
:104A50000E1000F013B8000038B5074C05460846A4
:104A60001146002222601A4600F0DEF8431C02D1F3
:104A7000236803B12B6038BDEC09002038B5064C23
:104A8000002305460846236000F098F8431C02D135
:104A9000236803B12B6038BDEC09002038B5074C02
:104AA0000023054608461146236000F08FF8431C9A
:104AB00002D1236803B12B6038BD00BFEC09002090
:104AC00038B5064C002305460846236000F086F8FA
:104AD000431C02D1236803B12B6038BDEC090020D0
:104AE00038B5074C054608461146002222601A4692
:104AF00000F07CF8431C02D1236803B12B6038BD61
:104B0000EC090020884210B501EB020307D8421ED1
:104B100099420AD011F8014B02F8014FF8E783429D
:104B2000F5D98118D21AD34200D110BD13F8014D26
:104B300001F8014DF7E770477047F8B5074614468E
:104B40000E4621B91146BDE8F840FFF7BDBA22B9BB
:104B5000FFF76CFA25462846F8BD00F027F8A0427A
:104B60000FD221463846FFF7AFFA05460028F2D0AB
:104B700031462246FEF780FE31463846FFF756FAA8
:104B8000E9E73546E7E7000038B5074C0546084633
:104B90001146002222601A4600F030F8431C02D170
:104BA000236803B12B6038BDEC09002051F8043CA8
:104BB000181F002BBCBF0B58C0187047024B58225F
:104BC0001A604FF0FF307047EC090020024B58226A
:104BD0001A604FF0FF307047EC090020024B58225A
:104BE0001A600020704700BFEC090020024B5822D9
:104BF0001A604FF0FF307047EC090020024B58223A
:104C00001A604FF0FF307047EC090020044A054954
:104C10001368002B08BF0B461844106018467047F5
:104C2000E4000020F0090020024B58221A604FF0E7
:104C3000FF307047EC090020F8B500BFF8BC08BC95
:104C40009E467047F8B500BFF8BC08BC9E4670474A
:104C50002A2A2A2A2A2A2057494649204D6F647554
:104C60006C6520696E2054435020436C69656E74F6
:104C7000206D6F64652064656D6F6E73747261740E
:104C8000696F6E202A2A2A2A2A2A200A0000000098
:104C900054435020436C69656E7420496E7374727E
:104CA000756374696F6E73203A000000312D204DDA
:104CB000616B65207375726520796F75722050681D
:104CC0006F6E6520697320636F6E6E6563746564D3
:104CD00020746F207468652073616D65206E657443
:104CE000776F726B20746861740000002020207957
:104CF0006F7520636F6E6669677572656420757382
:104D0000696E672074686520436F6E6669677572A7
:104D10006174696F6E2041636365737320506F69BE
:104D20006E742E00322D20437265617465206120FF
:104D3000736572766572206279207573696E67207B
:104D400074686520616E64726F6964206170706C54
:104D500069636174696F6E205443502053657276A5
:104D6000657200002020207769746820706F72746B
:104D70002838303032292E00332D204765742074B6
:104D80006865204E6574776F726B204E616D65208B
:104D90006F722049502041646472657373206F669E
:104DA00020796F757220416E64726F69642066723B
:104DB0006F6D20746865207374657020322E0A0050
:104DC0003E2057494649204D6F64756C6520496EF9
:104DD000697469616C697A65642E00003E206573B0
:104DE0002D77696669206D6F64756C65204D414350
:104DF0002041646472657373203A2025583A25581F
:104E00003A25583A25583A25583A25580A000000BC
:104E10003E204552524F52203A2043414E4E4F546D
:104E200020676574204D414320616464726573732B
:104E300000000000726964646C6526636F64652617
:104E40006E6574776F726B005233432D6E657477A5
:104E50006F726B003E2065732D77696669206D6FF8
:104E600064756C6520636F6E6E65637465642000A5
:104E70003E2065732D77696669206D6F64756C657A
:104E800020676F74204950204164647265737320F9
:104E90003A2025642E25642E25642E25640A000000
:104EA0003E20547279696E6720746F20636F6E6E56
:104EB00065637420746F205365727665723A20259D
:104EC000642E25642E25642E25643A383030322035
:104ED0002E2E2E0A000000007777772E676F6F67FF
:104EE0006C652E636F6D00005443505F434C494521
:104EF0004E5400003E2054435020436F6E6E656355
:104F000074696F6E206F70656E656420737563637E
:104F100065737366756C6C792E0000003E204552F7
:104F2000524F52203A2043616E6E6F74206F70654D
:104F30006E20436F6E6E656374696F6E00000000D3
:104F40003E204552524F52203A2065732D776966B4
:104F500069206D6F64756C652043414E4E4F54203F
:104F60006765742049502061646472657373000042
:104F70003E204552524F52203A2065732D77696684
:104F800069206D6F64756C65204E4F5420636F6EA1
:104F90006E656374656400003E204552524F522096
:104FA0003A2057494649204D6F64756C652063610E
:104FB0006E6E6F7420626520696E697469616C69D8
:104FC0007A65642E000000003E204552524F522068
:104FD0003A204661696C656420746F2073656E6465
:104FE00020446174612E00003E204552524F5220F1
:104FF0003A204661696C656420746F205265636570
:1050000069766520446174612E0000000000000094
:105010000000000001020304060708090000000068
:1050200001020304A0860100400D0300801A06005F
:1050300000350C0040420F0080841E0000093D0036
:1050400000127A000024F40000366E010048E801E6
:10505000006CDC020D0A4F4B0D0A3E2000000000E0
:105060000D0A4552524F52002C00000043313D259D
:10507000730D000043323D25730D000043333D2581
:10508000640D000043300D0044303D25730D0000D9
:105090005A350D000D0A0000433F0D00493F0D0A2F
:1050A0000000000052313D25640D000052323D25C4
:1050B0006C750D0052303D0D0000000053323D254F
:1050C0006C750D0053333D253034640D0000000035
:1050D0002D310D0A0000000050303D25640D000008
:1050E00050313D25640D000050323D25640D000017
:1050F00050343D25640D000050333D25642E256459
:105100002E25642E25640D0050363D310D00000023
:10511000600000200000000000000000000000000F
:10512000000000000000000000000000000000007F
:10513000000000000000000000000000000000006F
:10514000000000000000000000000000000000005F
:10515000000000000000000000000000000000004F
:10516000000000000000000000000000000000003F
:1051700000000000232D302B2000686C4C00656679
:105180006745464700303132333435363738394198
:1051900042434445460030313233343536373839AE
:0851A0006162636465660000B2
:0851A80008B1FF7F01000000C7
:0851B000B50100080000000039
:0851B800910100080000000055
:1051C000C0A8175B474554202F20485454502F3116
:1051D0002E310D0A486F73743A206F7261636C65EB
:1051E000732E7233632E6E6574776F726B0D0A4384
:1051F0006F6E6E656374696F6E3A20636C6F736572
:105200000D0A0D0A0000000000093D0000040048DE
:1052100000040048003801400004004860000020FD
:1052200000000000345100085451000814510008D7
:10523000000000000000000000000000000000006E
:10524000000000000000000000000000000000005E
:10525000000000000000000000000000000000004E
:10526000000000000000000000000000000000003E
:10527000000000000000000000000000000000002E
:04000005080037DDDB
:00000001FF
